:020000020000FC
:100000000C9402000FEF0DBF00E10EBF40E05FEF68
:10001000BD9ABA9A00E00ABB0E943F00A79AA69A2E
:10002000A59AA49A4ABB41BB42B957BB54BB69B31A
:1000300070B381B1803031F0813051F0823071F095
:100040008330A1F00E9450060E9400030C9412001D
:100050000E9450060E9460030C9412000E9400044B
:100060000E9400070E9400060C9412000E940005E6
:100070000E9450050E9400060C941200D3CF04E6A3
:100080000E94B700C298C59800E30E949F000AE052
:100090000E94B70000E30E949F0008EC0E94C50088
:1000A00000E30E949F0008EC0E94C50008E20E9445
:1000B0009F0000E50E94C50008E20E94970000E54D
:1000C0000E94C50008E00E94970000E50E94C5005C
:1000D00001E00E94970004E00E94B70006E00E9441
:1000E000970000E50E94C5000CE00E94970000E523
:1000F0000E94C5000895FF93EF9300680E94970047
:1001000000E50E94C5000191003031F00E948F008F
:1001100000E50E94C500F7CFEF91FF910895C29AC4
:10012000C5980E949F0002950E949F000895C29862
:10013000C5980E949F0002950E949F000895AF9A63
:1001400007FFAF98AE9A06FFAE98AD9A05FFAD983F
:10015000AC9A04FFAC98C59A0E94CA00C5980E9448
:10016000CA0008950E94BC002197E1F708950E94FB
:10017000BC000A95E1F70895CF93DF93CBECD7E06D
:100180002197F1F7DF91CF9108950E94CA000A9557
:0A019000E1F708950F930F91089511
:10060000E62FB7E0A0E0C0E0BA1731F0A3956795F8
:10061000D8F7C3950C94040392E0C9171CF0C91BCA
:100620000C940C03EE0FCA9512F00C941A03EF5FB2
:0A0630000C941A030E94500508956F
:1006C000E62FB7E0A0E0C0E0BA1731F0A395679538
:1006D000D8F7C3950C94640392E0C9171CF0C91BAA
:1006E0000C946C03EE0FCA951AF0EF5F0C947A032A
:0A06F0000C947A030E94500508954F
:10080000671721F067173CF076171CF050E00C9446
:0E0810000E040C940E04672F0C940E04089531
:100A000067171CF0671B0C940905761B672F0C9465
:060A10000905E62F089520
:100AA0003E2F1E2FF1E0E0E0B1E0A0E029E02A9522
:100AB00061F0111F10F00C94610501E30D930C948B
:100AC000570500E30D930C94570500E00E947B004E
:020AD000089587
:100C0000F1E0E0E5B1E0A0E500E0503001F1862F31
:100C10008295869586958695869566956695669560
:100C200066956A3042F00C942106682F03956A306D
:100C300012F00C942106605D6D93013079F00C94F4
:100C40001506695C6D93013049F00C94150605E4B6
:100C50000093500101E5009351015FEF00E40E9411
:040C60007B00089578
:100CA000F1E0E0E600E20093600100E20093610100
:080CB00000E40E947B0008959E
:100E0000F1E0E0E700E200937001009371010093CC
:100E100072010093730100937401009375010093B4
:0E0E200076010093770100E00E947B000895A8
:00000001FF
